:060000000A128A11122809
:10000800FE00030E83120313AC000408AD000A08B7
:10001800AE007F08AF000A168A15ED2C0A168A155D
:100028009B2AFF3083120313CB004B08CC00FD1230
:100038007D1288148813831603178901FF308316ED
:10004800031386008701880183120313880187013F
:10005800831603178C138B170B178B120430831618
:10006800031381008312031381010B1183160313F9
:100078000C14831203130C10303090000F308F00D3
:10008800FF308E0065300A168A1576220A128A1108
:1000980083120313CB004B08DA005A08FF3A031DFA
:1000A8005628572876288230B3009230B400B5011C
:1000B8001F30CB004B08B6000A168A15C2220A1256
:1000C8008A111F3083120313CB004B08DA005A0839
:1000D800CB004B08B00065300A168A1536240A1280
:1000E8008A11762883120313D201D3010A168A15BE
:1000F8000E220A128A11AC3083120313BD0092300B
:10010800BE000730CB004B08BF00C0010A168A1595
:100118004D260A128A1196280A168A15CF250A1220
:100128008A119628013083120313CC02031D9D28DF
:100138009E2890289F280A168A150E220A128A11CC
:100148000A168A11D6240A128A118312031310146C
:100158008B165908CB004B08D700FD1283160313E2
:1001680001130B168B10B828FD1EBB28BC28B82815
:100178008B128312031310100A168A11C4250A124F
:100188008A11FD1AC828C928B8280A168A150E2205
:100198000A128A11FD1265300A168A1576220A1289
:1001A8008A1183120313CB004B08DA00D201D30162
:1001B8000A168A11D6240A128A11831203131014FC
:1001C8008B16FD12B828B828B828B8280A128A1140
:1001D800122864008001840A040603190034040606
:0201E800EE28FF
:10020000FF1B0A2983137F1883170008840A031928
:10021000FF0A08007F087F398A000408840A03194E
:10022000FF0A82002034293461341C3462343234B1
:1002300063342134643423346534243466342B34F9
:100240006734343468343334693443346A343B3487
:100250006B3442346C344B346D343A346E34313454
:100260006F34443470344D347134153472342D3459
:1002700073341B3474342C3475343C3476342A345F
:1002800077341D3478342234793435347A341A345E
:10029000303445343134163432341E343334263459
:1002A0003434253435342E343634363437343D3412
:1002B00038343E343934463460340E342D344E34C0
:1002C0003D3455345C345D345B3454345D345B34DC
:1002D0003B344C34273452342C3441342E3449349A
:1002E0002F344A3430347034313469343234723417
:1002F00033347A3434346B343534733436347434C0
:1003000037346C343834753439347D340034053442
:10031000013406340234043403340C34043403341A
:1003200005340B340634833407340A34083401347A
:10033000093409340A3478340B3407340D34143456
:100340000E34113410345A34113476341234663485
:1003500014340D3416347E349D3477349E347C341A
:100360009F347B34A0347934A13471341734703421
:1003700018346C3419347D341A3471341B346934B4
:100380001C347A341D3475341E346B341F3472348B
:1003900080341F348134143482342734833411344C
:1003A00084342F3485347C3486344A3487345A3448
:1003B0008834373489343F348A345E348B344D3456
:1003C0008C3415348D343B348E3434348F342334B0
:1003D000903432349134213492345034933448344C
:1003E00094342B34953440349634103497343A3462
:1003F00098343834993430349A3428349B34203447
:100400009C341834A234743429347034213469345F
:100410004034723423347A3424346B3425347334C6
:100420005E34743426346C342A34753428347D3484
:100430007E340E345F344E342B3455347C345D348A
:100440007B3454347D345B343A344C34223452346B
:100450003C3441343E3449343F344A340B34003464
:1004600000340034003400340034003400340034EC
:1004700000340034003400340034003400340034DC
:1004800000340034003400340034003400340034CC
:1004900000340034003400340034003400340034BC
:1004A00000340034003400340034053400340034A7
:1004B000FE347134FE347334FE347134003400344D
:1004C000003400340034003400340034003400348C
:1004D000003400340034003400340034003400347C
:1004E000003400340034003400340034003400346C
:1004F000003400340034003409347C3400347C345B
:1005000000347C34003400340034003400347C3453
:1005100000347C3400347C34003400340034003443
:10052000003400340034003400340034003400342B
:10053000003400340034003400340034003400341B
:100540000034003400340C343034063430347E341B
:10055000F0347F34FC340F347E3406343234663465
:1005600030347F34F8343F34FE3407343E340634BC
:1005700020340634003400340034003400340034B5
:1005800000340034003400340034003400340034CB
:10059000003400340B3478343C34FC347C34E6349E
:1005A0007034C2346034FF34FF34FF34FF34C2345B
:1005B00061348E3473349C343F3408341F34003437
:1005C000003400340034003400340034003400348B
:1005D000003400340034003400340034003400347B
:1005E000003412347C340034FE340034823400345D
:1005F0008234003482346034FC34703478341C34F7
:100600000034073480340334E034003438343E346A
:100610001C347F34063441340034413400344134D6
:1006200000347F3400343E3400340034003400346D
:100630000F3400341E3400343F3438347F34FC34FB
:100640007334FE346134C6346134C6346334663482
:1006500077347C343E3438343C3400343F34003416
:1006600077340034723400342034003400340034E1
:1006700000340034003400340034003400340434D6
:100680007C3400347C3400347C3400340034003456
:1006900000340034003400340034003400340034BA
:1006A00000340034003400340034003400340034AA
:1006B000003400340034003400340034003400349A
:1006C0000034003400340034003400340634E034A4
:1006D0000734F8341F34FC343F340E3470340334A0
:1006E000C0340034003400340034003400340034AA
:1006F000003400340034003400340034003400345A
:100700000034003400340034003400340034003449
:100710000034003400340034003406340334C03470
:100720000E347034FC343F34F8341F34E034073472
:100730000034003400340034003400340034003419
:100740000034003400340034003400340034003409
:1007500000340034003400340034003400340034F9
:100760000034003400340034093418340034983430
:100770000034D03400347E3400347E340034D0343D
:100780000034D834003418340034003400340034D9
:1007900000340034003400340034003400340034B9
:1007A00000340034003400340034003400340034A9
:1007B0000034003400340C34C0340034C03400340D
:1007C000C0340034C0340034FC340F34FC340F34F3
:1007D000FC340F34C0340034C0340034C03400342E
:1007E000C0340034003400340034003400340034A9
:1007F0000034003400340034003400340034003459
:100800000034003405340034003400344E340034F5
:100810003E3400341E3400340034003400340034DC
:100820000034003400340034003400340034003428
:100830000034003400340034003400340034003418
:100840000034003400340034003400340034003408
:1008500000340734003403340034033400340334E8
:1008600000340334003403340034033400340034DF
:1008700000340034003400340034003400340034D8
:1008800000340034003400340034003400340034C8
:1008900000340034003400340034003400340034B8
:1008A0000534003400340034383400343834003433
:1008B0003834003400340034003400340034003460
:1008C0000034003400340034003400340034003488
:1008D0000034003400340034003400340034003478
:1008E0000034003400340034003400340034063462
:1008F0000034703400347F34F0340F34FE3400346C
:100900000E34003400340034003400340034003439
:100910000034003400340034003400340034003437
:100920000034003400340034003400340034003427
:100930000034003400340034003400340B34F0341C
:100940000F34F8341F34FC343F340E347034063422
:100950006034063460340E347034FC343F34F83480
:100960001F34F0340F3400340034003400340034C9
:1009700000340034003400340034003400340034D7
:10098000003400340034003400340834603400345F
:10099000703400343034003418340034FC347F3484
:1009A000FE347F34FE347F340034003400340034AD
:1009B0000034003400340034003400340034003497
:1009C0000034003400340034003400340034003487
:1009D00000340034003400340B34383470343C3488
:1009E00078341E347C3406347E3406346E34063457
:1009F00067348E346334FC346134FC3460347834CE
:100A000060340034003400340034003400340034E6
:100A10000034003400340034003400340034003436
:100A20000034003400340B3408341C341C343C349F
:100A30008E347034C6346034C6346034C6346034A6
:100A4000FE347134FC343F343C343F3400340E34D3
:100A500000340034003400340034003400340034F6
:100A600000340034003400340034003400340034E6
:100A7000003400340D340034043400340F34803436
:100A80000F34C0340D34E0340C3438340C341C349E
:100A90000C34FE347F34FE347F34FE347F34003433
:100AA0000C3400340C34003400340034003400348E
:100AB0000034003400340034003400340034003496
:100AC00000340B34F0341C34FE343C34FE347034C7
:100AD000663460346634603466346034E6347034CE
:100AE000C6343F34C6341F3404340F340034003469
:100AF0000034003400340034003400340034003456
:100B00000034003400340034003400340034003445
:100B10000B34E0340F34F8341F34FC343F348E345B
:100B20007134C6346034C6346034CE347134DE344B
:100B30003F349C343F3400341F34003400340034DC
:100B40000034003400340034003400340034003405
:100B500000340034003400340034003400340B34EA
:100B600006340034063400340634783406347E34D7
:100B700086347F34E6340734F63400343E340034AF
:100B80001E340034063400340034003400340034A1
:100B900000340034003400340034003400340034B5
:100BA0000034003400340034003400340B3400349A
:100BB0001E343C343F34FC347F34EE347134C6345C
:100BC0006034C6346034EE347134FE347F343C34E7
:100BD0003F3400341E340034003400340034003418
:100BE0000034003400340034003400340034003465
:100BF000003400340034003400340C34F034003459
:100C0000FC343934FC343B348E347334063463346E
:100C100006346334063463348E347134FC343F3428
:100C2000F8341F34F0340734003400340034003416
:100C30000034003400340034003400340034003414
:100C400000340034003400340534003400343834C7
:100C50001C3438341C3438341C3400340034003430
:100C600000340034003400340034003400340034E4
:100C700000340034003400340034003400340034D4
:100C800000340034003400340034003400340034C4
:100C90000034003400340534003400341C346E3425
:100CA0001C347E341C341C340034003400340034D2
:100CB0000034003400340034003400340034003494
:100CC0000034003400340034003400340034003484
:100CD0000034003400340034003400340034003474
:100CE000003400340B34C0340134C0340134E034F7
:100CF00003346034033470340734703407343034D0
:100D0000063438340E3418340C341C341C3400349B
:100D10000034003400340034003400340034003433
:100D20000034003400340034003400340034003423
:100D300000340B343034033430340334303403346F
:100D40003034033430340334303403343034033437
:100D5000303403343034033430340334003400345A
:100D600000340034003400340034003400340034E3
:100D700000340034003400340034003400340034D3
:100D80000B341C340E34183406341834063438341A
:100D9000073430340334B0340334E0340134E03405
:100DA0000134E0340134C034003400340034003401
:100DB0000034003400340034003400340034003493
:100DC00000340034003400340034003400340B3478
:100DD000383400343C3400341E3400340634763465
:100DE0008634773486347734CE340134FE3400349C
:100DF0007C3400343834003400340034003400349F
:100E00000034003400340034003400340034003442
:100E10000034003400340034003400341334F0342F
:100E20000F3478341C341C3430348E347734E63448
:100E30006F34E634EF347334C8341334C8341334A5
:100E4000C8341334CC342334CF34F334CF34F734B0
:100E5000C9341634C8340E346C341C346F34F8344E
:100E60001734E0341134003400340E34003470345C
:100E700000347C3480343F34E0340734FC340734AD
:100E80003E340634063406343E340634F83407342F
:100E9000E0340F3480343F3400347C340034703418
:100EA00000340034003400340034003400340034A2
:100EB00000340034003400340D34FE347F34FE340A
:100EC0007F34FE347F348634613486346134863432
:100ED00061348634613486346134FE347334FC34D6
:100EE0007F347C343F3400341E340034003400340A
:100EF0000034003400340034003400340034003452
:100F00000034003400340E34E0340734F8341F3435
:100F1000FC343F341C3438340E34703406346034BE
:100F20000634603406346034063460340E34703471
:100F30003C343C3438341E3430340C340034003407
:100F40000034003400340034003400340034003401
:100F5000003400340E3400340034FE347F34FE3468
:100F60007F34FE347F340634603406346034063413
:100F70006034063460340E3470341E347834FC34FB
:100F80003F34F8341F34E034073400340034003484
:100F900000340034003400340034003400340034B1
:100FA00000340D3400340034FE347F34FE347F349A
:100FB000FE347F348634613486346134863461345F
:100FC00086346134863461348634613486346134E5
:100FD000063460340034003400340034003400340B
:100FE0000034003400340034003400340034003461
:100FF0000B34FE347F34FE347F34FE347F34863449
:101000000134863401348634013486340134863424
:1010100001348634013406340034003400340034A2
:101020000034003400340034003400340034003420
:1010300000340034003400340034003400340F3401
:10104000E0340734F8341F34FC343F341C34383473
:101050000E3470340634603406346034063463343D
:10106000063463340E3463341E3473343C343F34FA
:1010700038343F3420341F3400340034003400341A
:101080000034003400340034003400340E340034B2
:101090000034FE347F34FE347F34FE347F34C03479
:1010A0000034C0340034C0340034C0340034C034A0
:1010B0000034C0340034FE347F34FE347F34FE34D8
:1010C0007F34003400340034003400340034003401
:1010D000003400340034003400340534003400346B
:1010E000FE347F34FE347F34FE347F3400340034E9
:1010F0000034003400340034003400340034003450
:10110000003400340034003400340034003400343F
:10111000003400340034003400340034003400342F
:1011200000340034003400340B3400340C34003408
:101130003E3400347E340034703400346034003483
:10114000603400347034FE347F34FE343F34FE3477
:101150001F340034003400340034003400340034D0
:1011600000340034003400340034003400340034DF
:101170000034003400340E3400340034FE347F3444
:10118000FE347F34FE347F3480340334C034013481
:10119000E0340034F0340334B83407343C341F34C2
:1011A0001E343E340E347834043470340034003449
:1011B000003400340034003400340034003400348F
:1011C000003400340B34FE347F34FE347F34FE347C
:1011D0007F340034603400346034003460340034D0
:1011E00060340034603400346034003460340034DF
:1011F000003400340034003400340034003400344F
:10120000003400340034003400340034003400343E
:1012100000340F34FE347F34FE347F34FE347F34A8
:101220003E340034FE340334F0343F3400347F3431
:1012300000347F34E0343F34FC3403343E34003433
:10124000FE347F34FE347F34FE347F340034003487
:1012500000340034003400340034003400340034EE
:101260000E34FC347F34FE347F34FE347F343C341F
:10127000003478340034E0340134C0340334803432
:10128000073400341E3400343C34FE347F34FE34E2
:101290007F34FE347F3400340034003400340034B2
:1012A00000340034003400340034003400340F348F
:1012B000E0340734F8341F34FC343F341C34383401
:1012C0000E347034063460340634603406346034CE
:1012D000063460340E3470341C343834FC343F34FB
:1012E000F8341F34E0340734003400340034003460
:1012F0000034003400340034003400340D34003441
:101300000034FE347F34FE347F34FE347F34863440
:101310000134863401348634013486340134CE34C9
:101320000134FE340134FC340034783400340034A9
:10133000003400340034003400340034003400340D
:10134000003400340034003400341034E034073406
:10135000F8341F34FC343F341C3438340E347034C9
:101360000634603406346C3406346C340634783415
:101370000E3478341C343834FC347F34F834FF3481
:10138000E034C73400348034003400340034003496
:1013900000340034003400340D34FE347F34FE3425
:1013A0007F34FE347F34863401348634013486340D
:1013B00001348634033486340734CE341F34FE348B
:1013C0003C34FC34783478347034003400340034E5
:1013D000003400340034003400340034003400346D
:1013E0000034003400340D3478341C34FC343C3484
:1013F000FC343834CE347034C6346134C63461348D
:1014000086346134863461348E347334BC343F3472
:1014100038343F3400341E34003400340034003497
:10142000003400340034003400340034003400341C
:10143000003400340C3406340034063400340634EE
:10144000003406340034FE347F34FE347F34FE34FE
:101450007F34063400340634003406340034063455
:1014600000340034003400340034003400340034DC
:1014700000340034003400340034003400340034CC
:1014800000340E3400340034FE340F34FE343F3464
:10149000FE343F340034703400346034003460343F
:1014A000003460340034603400347034FE343F342F
:1014B000FE343F34FE340F34003400340034003442
:1014C000003400340034003400340034003400347C
:1014D0000E340E3400343E340034FE340134F03423
:1014E0000734C0343F3400347E3400347034003468
:1014F0007E3480343F34F0340734FE3401343E34DB
:1015000000340E340034003400340034003400342D
:101510000034003400340034003400340034133418
:101520001E340034FE340034FC340F34C0347F34B5
:1015300000347C3400347F34E0341F34FC34033412
:101540003E3400343E340034FC340134E0341F3483
:1015500000347F3400347C34C0347F34FC340F34A6
:10156000FE3400341E340034003400340D340434AE
:1015700060340E3478343E347C347C341E34F034A1
:101580000F34E0340734E0340734F0340F34783467
:101590001E343E347C340E347834063460340034E7
:1015A000003400340034003400340034003400349B
:1015B000003400340034003400340C340E34003471
:1015C0001E3400347C340034F8340034E0347F348A
:1015D000C0347F34E0347F34F83400347C34003459
:1015E0001E3400340E34003400340034003400342F
:1015F000003400340034003400340034003400344B
:1016000000340034003400340E34003470340634B6
:10161000783406347C3406347E3406346F348634B1
:101620006734C6346334F6346134FE3460347E3457
:1016300060341E3460340E3460340034603400345E
:1016400000340034003400340034003400340034FA
:101650000034003400340734FE347F34FE347F34E9
:10166000FE347F340634603406346034063460342B
:1016700000340034003400340034003400340034CA
:1016800000340034003400340034003400340034BA
:1016900000340034003400340034003400340034AA
:1016A000003400340634063400347E340034F83418
:1016B000073480347F34003478340034003400340C
:1016C000003400340034003400340034003400347A
:1016D000003400340034003400340034003400346A
:1016E000003400340034003400340034003400345A
:1016F0000034073406346034063460340634603411
:10170000FE347F34FE347F34FE347F3400340034C2
:101710000034003400340034003400340034003429
:101720000034003400340034003400340034003419
:101730000034003400340034003400340034003409
:101740000B3400340134C0340134F0340134FC343F
:1017500000341E3400343E340034FC340034F034A1
:101760000134803401340034013400340034003456
:1017700000340034003400340034003400340034C9
:1017800000340034003400340034003400340B34AE
:1017900000344034003440340034403400344034A9
:1017A0000034403400344034003440340034403499
:1017B0000034403400344034003400340034003409
:1017C0000034003400340034003400340034003479
:1017D0000034003400340034003400340534043460
:1017E00000340C3400341C34003410340034003421
:1017F0000034003400340034003400340034003449
:101800000034003400340034003400340034003438
:101810000034003400340034003400340034003428
:10182000003400340034003400340C3400341C34F0
:1018300060343E3470343F343034333430343334F5
:1018400030341134B0341934F0341F34E0343F34C0
:10185000E0343F34003420340034003400340034A9
:1018600000340034003400340034003400340034D8
:1018700000340034003400340C34FE347F34FE3441
:101880007F34FE347F34C0343034603460346034AC
:10189000603460346034E0347034E0347F34C03419
:1018A0003F3480340F3400340034003400340034CA
:1018B0000034003400340034003400340034003488
:1018C0000034003400340B3480340734E0341F34E7
:1018D000E0341F3470343834303430343034303401
:1018E0003034303470343834E0341C34E0341C3458
:1018F0000034003400340034003400340034003448
:101900000034003400340034003400340034003437
:10191000003400340B3480341F34C0343F34E0349E
:101920007F34E03470346034603460346034C03408
:101930003034FE347F34FE347F34FE347F34003460
:1019400000340034003400340034003400340034F7
:1019500000340034003400340034003400340034E7
:1019600000340B3480340734E0341F34E0341F3447
:1019700070343B34303433343034333430343334F3
:1019800070343334E0341B34C0341B34003400343E
:1019900000340034003400340034003400340034A7
:1019A0000034003400340034003400340034003497
:1019B00009346034003460340034FC347F34FE3445
:1019C0007F34FE347F3466340034663400340634A9
:1019D0000034003400340034003400340034003467
:1019E0000034003400340034003400340034003457
:1019F00000340034003400340034003400340B343C
:101A0000F8340134FC343334FE3477340E34673424
:101A100006346634063466340C347334FE347F3452
:101A2000FE343F34FE341F340034003400340034BC
:101A30000034003400340034003400340034003406
:101A40000034003400340034003400340B34FE34ED
:101A50007F34FE347F34FE347F34C034003460344D
:101A600000346034003460340034E0347F34C034F7
:101A70007F3480347F340034003400340034003448
:101A800000340034003400340034003400340034B6
:101A9000003400340034003400340434E6347F343D
:101AA000E6347F34E6347F340034003400340034CC
:101AB0000034003400340034003400340034003486
:101AC0000034003400340034003400340034003476
:101AD0000034003400340034003400340034003466
:101AE0000034003400340034053400346034E6340B
:101AF0007F34E6347F34E6343F340034003400343D
:101B00000034003400340034003400340034003435
:101B10000034003400340034003400340034003425
:101B20000034003400340034003400340034003415
:101B30000034003400340B34FE347F34FE347F3400
:101B4000FE347F340034073480340334C0340F341F
:101B5000E0341E34E034783460347034003440347F
:101B600000340034003400340034003400340034D5
:101B700000340034003400340034003400340034C5
:101B8000003400340434FE347F34FE347F34FE34B9
:101B90007F34003400340034003400340034003426
:101BA0000034003400340034003400340034003495
:101BB0000034003400340034003400340034003485
:101BC0000034003400340034003400340034003475
:101BD00000341134F0343F34F0343F34F0343F34C7
:101BE000603400343034003430340034F0343F3466
:101BF000F0343F34E0343F34603400343034003467
:101C00003034003430340034F0343F34E0343F3486
:101C1000E0343F3400340034003400340034003405
:101C20000B34F0343F34F0343F34F0343F3460341C
:101C30000034303400343034003430340034F03484
:101C40003F34E0343F34C0343F3400340034003497
:101C500000340034003400340034003400340034E4
:101C600000340034003400340034003400340C34C8
:101C700080340734E0341F34E0341F347034383497
:101C800030343034303430343034303470343834EC
:101C9000E0341F34E0341F3480340734003400341F
:101CA0000034003400340034003400340034003494
:101CB0000034003400340034003400340C34FC347C
:101CC000FF34FC34FF34FC34FF34183406340C3455
:101CD0000C340C340C340C340C341C340E34FC3402
:101CE0000F34F8340734E034013400340034003465
:101CF0000034003400340034003400340034003444
:101D0000003400340034003400340B34F034033435
:101D1000F8340734FC340F341C340E340C340C34D7
:101D20000C340C3418340634FC34FF34FC34FF34E7
:101D3000FC34FF3400340034003400340034003408
:101D400000340034003400340034003400340034F3
:101D500000340034003400340934F0343F34F034BB
:101D60003F34F0343F3460340034303400343034A5
:101D70000034303400342034003400340034003473
:101D800000340034003400340034003400340034B3
:101D900000340034003400340034003400340034A3
:101DA0000034003400340A34E0341C34E0341D3490
:101DB000F0343934303433343034333470343334F1
:101DC00070343F3460341E3400340E340034003438
:101DD0000034003400340034003400340034003463
:101DE0000034003400340034003400340034003453
:101DF0000034003409344034003460340034FE349C
:101E00003F34FE347F34FE347F34603460346034D9
:101E10006034003460340034003400340034003462
:101E20000034003400340034003400340034003412
:101E30000034003400340034003400340034003402
:101E400000340B34F0340F34F0341F34F0343F34AA
:101E50000034383400343034003430340034183432
:101E6000F0343F34F0343F34F0343F340034003445
:101E700000340034003400340034003400340034C2
:101E800000340034003400340034003400340034B2
:101E90000B3470340034F0340134E03407348034CF
:101EA0001F3400343C3400343C3480341F34E0347C
:101EB0000734F0340134303400340034003400345A
:101EC0000034003400340034003400340034003472
:101ED0000034003400340034003400340034113451
:101EE00070340034F0340134E0340F3400343F34C3
:101EF0000034383400343F34E0340F34F0340134EB
:101F0000F0340134E0340F3400343F3400343834DA
:101F100000343F34E0340F34F03401347034003492
:101F20000034003400340034003400340B343034D6
:101F3000303470343834F0343C34E0341F34C0343E
:101F40000F34C0340F34E0341F34F0343C34703478
:101F50003834303430340034003400340034003449
:101F600000340034003400340034003400340034D1
:101F7000003400340034003400340B341C34C034DA
:101F80007C34C034F834C134E034FF3400347F345E
:101F900000343F34E0340F34F83401347C340034FE
:101FA0001C34003400340034003400340034003475
:101FB0000034003400340034003400340034003481
:101FC00000340034003400340B3460346034603446
:101FD00070346034783460347C3460346E3460340F
:101FE0006734E0346334E0346134E0346034003426
:101FF00060340034003400340034003400340034E1
:102000000034003400340034003400340034003430
:10201000003400340034083480340134C0340334D4
:10202000FE347F34FF34FF347F34FE340334C03455
:102030000334C0340034003400340034003400343D
:1020400000340034003400340034003400340034F0
:1020500000340034003400340034003400340034E0
:1020600000340034043400340034FF34FF34FF34CF
:10207000FF340034003400340034003400340034C1
:1020800000340034003400340034003400340034B0
:1020900000340034003400340034003400340034A0
:1020A0000034003400340034003400340034003490
:1020B000003408340334C0340334C0347F34FE3475
:1020C000FF34FF34FE347F34C034033480340134B1
:1020D0000034003400340034003400340034003460
:1020E0000034003400340034003400340034003450
:1020F0000034003400340034003400340034003440
:102100000C3480340334C0340134C0340134C0345E
:102110000134C034013480340134803403348034D9
:1021200003348034033480340334C0340134003445
:1021300000340034003400340034003400340034FF
:1021400000340034003400340034003400340034EF
:102150000034003400340034003400345F34003480
:1021600000340034073400340734003414347F342E
:1021700014347F34143424342A347F342A3412340F
:1021800023341334083464346234363449345534D7
:102190002234503400340534033400340034003425
:1021A0001C342234413400340034413422341C3491
:1021B000003408342A341C342A34083408340834EF
:1021C0003E340834083400345034303400340034A1
:1021D00008340834083408340834003430343034D7
:1021E00000340034203410340834043402343E34D3
:1021F0005134493445343E34003442347F34403421
:102200000034423461345134493446342134413449
:1022100045344B3431341834143412347F34103490
:10222000273445344534453439343C344A34493410
:1022300049343034013471340934053403343634CC
:10224000493449344934363406344934493429341C
:102250001E340034363436340034003400345634FE
:102260003634003400340034083414342234413419
:1022700014341434143414341434413422341434E3
:102280000834003402340134513409340634323411
:102290004934793441343E347E34113411341134AC
:1022A0007E347F3449344934493436343E34413401
:1022B0004134413422347F344134413422341C349B
:1022C0007F3449344934493441347F340934093442
:1022D000013401343E3441344134513432347F349A
:1022E0000834083408347F34003441347F344134B6
:1022F00000342034403441343F3401347F340834D6
:102300001434223441347F34403440344034403437
:102310007F340234043402347F347F34043408348C
:1023200010347F343E344134413441343E347F34C0
:1023300009340934093406343E34413451342134EB
:102340005E347F34093419342934463446344934F0
:10235000493449343134013401347F340134013497
:102360003F344034403440343F341F342034403410
:1023700020341F347F342034183420347F346334C5
:102380001434083414346334033404347834043497
:102390000334613451344934453443340034003417
:1023A0007F3441344134023404340834103420344E
:1023B000413441347F340034003404340234013475
:1023C0000234043440344034403440344034003427
:1023D000013402340434003420345434543454343A
:1023E00078347F34483444344434383438344434D2
:1023F00044344434203438344434443448347F340E
:102400003834543454345434183408347E34093451
:102410000134023408345434543454343C347F345A
:102420000834043404347834003444347D34403483
:1024300000342034403444343D34003400347F349C
:10244000103428344434003441347F344034003470
:102450007C3404341834043478347C340834043440
:1024600004347834383444344434443438347C3498
:102470001434143414340834083414341434183430
:102480007C347C3408340434043408344834543400
:1024900054345434203404343F34443440342034ED
:1024A0003C344034403420347C341C3420344034B8
:1024B00020341C343C344034303440343C344434D4
:1024C00028341034283444340C34503450345034CC
:1024D0003C344434643454344C34443400343C3458
:1024E000E73481340034003400347E347E340034E8
:1024F00000348134E7343C34003410340834103470
:10250000203410342034203420342034203420343B
:102510002034203445344E3454344534523420343D
:1025200053344F344D3445342034543445345834C6
:1025300054342034203420342034203420342034C7
:1025400020340034543459345034453420344E341B
:102550004F3457342E3400345734413449345434D2
:082560002E342E342E34003419
:1025940083120313B900B8010030B6008030B700CD
:1025A4003908B4003408B00006300A168A15D5215B
:1025B4000A168A1183120313B5003508B900B8014D
:1025C40005303802031CE72AE82AEA2A072B072BDE
:1025D4003708B101B1073608B001B00739080A1647
:1025E4008A15A0230A168A11013083120313B4003A
:1025F4003408B8070130B4003408B907053038028C
:10260400031C052B062BEA2A072B0030B0000030F0
:10261400B10039080A168A15A0230A168A1108007F
:10262400F300F4017D19172B182BA92BF401523058
:102634007402031C1E2B1F2B212BE72BE72B0314E7
:10264400740D123E840081300318013E831203137B
:10265400FF000A128A1100210A168A117306031D4B
:10266400342B352B742B1B307402031C3A2B3B2B5D
:102674005C2B313074020318402B412B5C2BFD1D65
:10268400442B452B5C2B7D177408F2007207CA3E5D
:10269400043E840082300318013EFF000A128A11AE
:1026A40000210A168A110A168A1570230A168A113D
:1026B4007D13E72B7408F2007207123E8400813008
:1026C4000318013E83120313FF000A128A1100212A
:1026D4000A168A110A168A1570230A168A11E72B1C
:1026E400E72BE72B0314740D123E8400813003188A
:1026F400013E83120313FF000A128A1100210A16F5
:102704008A117306031D872B882B9D2B7408F200F6
:102714007207123E840081300318013EFF000A1242
:102724008A1100210A168A110A168A1570230A16BC
:102734008A11E72BE72B0130F2007208F4075230BC
:102744007402031CA62BA72B212BE72BE72BF401E8
:1027540027307402031CAF2BB02BB22BE72BE72BD3
:102764000314740DB63E840081300318013E8312B5
:102774000313FF000A128A1100210A168A11730634
:10278400031DC52BC62BDB2B7408F2007207B63E63
:10279400840081300318013EFF000A128A110021CF
:1027A4000A168A110A168A1570230A168A11E72B4B
:1027B400E72B0130F2007208F40727307402031C7F
:1027C400E42BE52BB22BE72BE72B08008312031332
:1027D400AA01A201A401240852070A168A15EF21AE
:1027E4000A168A1183120313A0002008A7002708E1
:1027F4000A168A1541230A168A11710883120313D3
:10280400FF00700884000A128A1100210A168A1136
:10281400A0002008D300CE2C27080A168A154123CD
:102824000A168A11710883120313A601A6077008F9
:10283400A501A5072608FF00250884000A128A11AD
:1028440000210A168A11A0002008A2000130A0006D
:102854002008A407A301BA2CA308031D322C332C8F
:10286400362CA801A9016A2C0130A5070318A60A71
:102874000030A60701302507840026080318260A1D
:10288400FF000A128A1100210A168A11A000A10170
:102894002008A8002108A90008300310A80DA90DDC
:1028A400FF3E031D4F2C2608FF00250884000A1252
:1028B4008A1100210A168A11A000A1012008A80487
:1028C4002108A9040130A5070318A60A0030A607A9
:1028D40020302A0203186F2C702C7C2C2A08A000AC
:1028E4002007903E8400280883178000840A290862
:1028F4008000B12C20302A02031C812C822C952CC0
:1029040040302A020318872C882C952C2A08A00012
:102914002007C03EA03E8400280883138000840A58
:1029240029088000B12C40302A02031C9A2C9B2CCD
:10293400D52C54302A020318A02CA12CD52C2A08FB
:10294400A0002007803E103E8400280883178000E2
:10295400840A29088000B12CD52CB12CB12C01306B
:10296400A0002008A3070130A0002008AA07BA2C61
:1029740022082302031CBF2CC02C2E2CC12C24089B
:1029840052070A168A15EF210A168A1183120313B5
:10299400A0002008A700CE2C2708FF3A031DD32C43
:1029A400D42C0E2CD52C080083120313C701BF01AD
:1029B400C101410852070A168A1576220A168A119D
:1029C40083120313BD003D08C40044080A168A1587
:1029D400D0230A168A11710883120313FF007008AA
:1029E40084000A128A1100210A168A11BD003D08CA
:1029F400D300BC2D44080A168A15D0230A168A115E
:102A0400710883120313C301C3077008C201C2070C
:102A14004308FF00420884000A128A1100210A16A2
:102A24008A11BD003D08BF000130BD003D08C1074B
:102A3400C001A82DC008031D202D212D242DC50162
:102A4400C601582D0130C2070318C30A0030C3075A
:102A540001304207840043080318430AFF000A12A6
:102A64008A1100210A168A11BD00BE013D08C50065
:102A74003E08C60008300310C50DC60DFF3E031DF9
:102A84003D2D4308FF00420884000A128A110021E8
:102A94000A168A11BD00BE013D08C5043E08C604DD
:102AA4000130C2070318C30A0030C30720304702AD
:102AB40003185D2D5E2D6A2D4708BD003D07903E2D
:102AC4008400450883178000840A460880009F2DEF
:102AD40020304702031C6F2D702D832D4030470298
:102AE4000318752D762D832D4708BD003D07C03E84
:102AF400A03E8400450883138000840A46088000B1
:102B04009F2D40304702031C882D892DC32D54303E
:102B1400470203188E2D8F2DC32D4708BD003D0796
:102B2400803E103E8400450883178000840A4608CE
:102B340080009F2DC32D9F2D9F2D0130BD003D088A
:102B4400C0070130BD003D08C707A82D3F0840025B
:102B5400031CAD2DAE2D1C2DAF2D410852070A16B6
:102B64008A1576220A168A1183120313BD003D08C2
:102B7400C400BC2D4408FF3A031DC12DC22DFC2CFA
:102B8400C32D0800FF3083120313C90049088316BC
:102B94000317E000EF3083120313C90049088316BA
:102BA4000317DC00283083120313C9004908831675
:102BB4000317DE00E201073083120313C90049083A
:102BC40083160317DF00023083120313C900490878
:102BD40083160317DA00E101DB01DD010A168A1509
:102BE4000E220A168A11AC3083120313BD009230F0
:102BF400BE000730C9004908BF00C0010A168A1583
:102C04004D260A168A110C2E0A168A15CF250A1685
:102C14008A110C2E013083160317DC02031D132EB8
:102C2400142E062E152EEF3083120313C900490803
:102C340083160317DC000A168A150E220A168A1157
:102C4400A23083120313BD009230BE000930C900C4
:102C54004908BF00C0010A168A154D260A168A11B2
:102C64008316031762080A168A11CA220A168A11E1
:102C7400831203135908C9004908D700D030B000A3
:102C84000130B1002030C9004908B2000A30B30055
:102C94000030B4000A168A152F220A168A11A82FAA
:102CA4000A168A15CF250A168A11831203135708A8
:102CB400590603195E2E5F2EA82F0A168A150E22B6
:102CC4000A168A110A168A15BC210A168A11831259
:102CD4000313C900490883160317E000562F62083E
:102CE400610783120313C900CA01CA0D4A084904C3
:102CF400031D7D2E7E2E802E612F612F83160317D8
:102D040062085A02031C872E882E942E0330620216
:102D140003188D2E8E2E972EE108031D922E932ECE
:102D2400972E942E0130E202612F0130E102612FCF
:102D3400612F6208610783120313C900CA01CA0D17
:102D4400831603175E088312031349064A04031DFE
:102D5400AC2EAD2EAF2E612F612F831603175F08A3
:102D640062020318B62EB72EC02E0130831203134D
:102D7400C900490883160317E207612F0130831243
:102D84000313C900490883160317E107612F612F54
:102D9400000083160317DD01E62E2030831203138F
:102DA400C9004908B000831603175D080A168A157E
:102DB40036240A168A11013083120313C900490804
:102DC40083160317DD07E62E5E08073E83120313FE
:102DD400C900003003180130CA00831603175D08C8
:102DE4008312031349064A04031DF92EFA2ECF2E2B
:102DF40083160317DB01E101E201DB01612F6208A5
:102E0400610783120313C900CA01CA0D831603178D
:102E14005E088312031349064A04031D122F132F5D
:102E2400152F612F612F2030831603176002031CB6
:102E34001C2F1D2F612F803060020318222F232F97
:102E4400612F600883120313C9004908B000831678
:102E5400031761086207073E0A168A1536240A1604
:102E64008A11013083120313C9004908831603171A
:102E7400DB075F0862020318402F412F4A2F0130FD
:102E840083120313C900490883160317E207612F4D
:102E9400013083120313C900490883160317E1079D
:102EA400612F612F612F612F6008013A0319CA2E27
:102EB4001F3A0319712EBC3A03199B2E012FA2301D
:102EC40083120313BD009230BE000930C9004908C3
:102ED400BF00C0010A168A154D260A168A118316E8
:102EE40003176108073E83120313C9004908B2009F
:102EF400831603175F0883120313CA004A08B3003A
:102F0400D0300A168A1552220A168A11D03083123A
:102F14000313BD000130BE00831603175F0883123C
:102F24000313C9004908BF00C0010314C00D0A16E9
:102F34008A154D260A168A118316031762080A1683
:102F44008A11CA220A168A11A82FA82F83160317DA
:102F54006008113A031DAF2FB02F522EB12F0A165D
:102F64008A150E220A168A11AC3083120313BD008F
:102F74009230BE000730C9004908BF00C0010A16DC
:102F84008A154D260A168A11CD2F0A168A15CF25C1
:102F94000A168A11CD2F013083160317DC02031D94
:102FA400D42FD52FC72FD62F0A168A150E220A160C
:102FB4008A11831603175B08073E83120313C900A3
:102FC4004908B00065300A168A1536240A168A1193
:102FD400993083120313B3009230B400B501073063
:102FE400C9004908B6000A168A15C2220A168A11AF
:0C2FF400FD1200000000000000000800BA
:103378008312031359084D3E840083130008B000DC
:103388003008B1000130B0003008D9075908053AB3
:10339800031DCF29D029D229D901D2293108D4290E
:1033A800080083120313B300B201331CDC29DD29A2
:1033B800E2293008B1003108B207E2290310B00D44
:1033C8000310B30CB308031DEA29EB29D929EC290A
:1033D8003208EE290800F1006400831603178C18E0
:1033E800F629F729F029F8297108831203178D00A7
:1033F8003F30F0007008831603178C050C14031077
:103408000C180314003003180130831203170C083A
:103418000D2A0800903083120313B0000130B10068
:10342800B2014030B3000030B4000A168A152F22CA
:103438000A168A15A03083120313B0000030B100B9
:10344800B2014030B3000030B4000A168A152F22AA
:103458000A168A150800482A831203133208B50091
:10346800300884008317311C831335088000FF302F
:10347800B3070318B40AFF30B4070130B0070318C4
:10348800B10A0030B107482A831203133408330401
:10349800031D4F2A502A302A512A08008312031389
:1034A800B600B7016E2A370832070A168A1576223F
:1034B8000A168A1583120313B40037083607B500B5
:1034C800350884003408831780000130B4003408BC
:1034D800B7076E2A37083306031D732A742A572A3A
:1034E800752A080083120313B100640083160317BA
:1034F8008C187F2A802A792A812A8312031331089B
:10350800831203178D003F3083120313B000300875
:10351800831603178C050C1403100C1803140030C1
:1035280003180130831203170C089A2A0800FD01BA
:1035380083134D3084005A300A128A11ED200A167E
:103548008A15A0308400E0300A128A11ED200A168C
:103558008A15831790308400D0300A128A11ED2022
:103568000A168A151030840038300A128A11ED20A4
:103578000A168A1583010A128A1115288312031361
:10358800B801E32A38083307840034080318340ADA
:10359800FF000A128A1100210A168A15B700370897
:1035A800B000380835070A168A1536240A168A150F
:1035B800013083120313B7003708B807E32A380825
:1035C8003606031DE82AE92AC62AEA2A0800F40171
:1035D800F501EE2A701CF12AF22AF82A7208F4077B
:1035E8000318F50A7308F50701300310F20DF30DFF
:1035F800FF3E031DF92A01300310F10CF00CFF3EC9
:10360800031D002B71087004031D0B2B0C2BEE2AD5
:103618000D2B7508F101F1077408F001F007142B60
:10362800080083120313B401B5011A2B301C1D2B9B
:103638001E2B242B3208B4070318B50A3308B50724
:1036480001300310B20DB30DFF3E031D252B0130D1
:103658000310B10CB00CFF3E031D2C2B31083004B5
:10366800031D372B382B1A2B392B3508B101B1071D
:103678003408B001B007402B0800FA007A08E03E91
:10368800FB00FF3003180030FC002730F00000304A
:10369800F1007C08F301F3077B08F201F2070A1630
:1036A8008A15EB220A168A157108FC01FC077008B6
:1036B800FB01FB072E30F6008230F7007B08760707
:1036C800F8007C0803187C0A7707F9007808F000EE
:1036D8007908F1006F2B0800F10061307102031CBA
:1036E800762B772B892B7B30710203187C2B7D2B53
:1036F800892BFD19802B812B862B7D1E842B852BF6
:10370800892B862B2030F102892B7108F000831257
:10371800031357084D3E840070088313800001305E
:10372800F0007008D7075708053A031D9C2B9D2BFE
:103738009F2BD7019F2B080083120313B30020305F
:1037480033020318A82BA92BB52B3308B200320774
:10375800903E8400300883178004840A310880046E
:10376800CF2B20303302031CBA2BBB2BCF2B40307E
:1037780033020318C02BC12BCF2B3308B2003207FA
:10378800C03EA03E8400300883138004840A3108B8
:103798008004CF2BCF2B080083120313BA003A08FA
:1037A800E03EBB00FF3003180030BC002730B000FB
:1037B8000030B1003C08B301B3073B08B201B207BF
:1037C8000A168A1515230A168A1583120313310857
:1037D800BC01BC073008BB01BB072E30B6008230E5
:1037E800B7003B083607B8003C0803183C0A3707FF
:1037F800B9003808F0003908F100022C08008312DB
:103808000313BA003A08E03EBB00FF30031800304B
:10381800BC000530B0000030B1003C08B301B3076C
:103828003B08B201B2070A168A1515230A168A152B
:10383800831203133108BC01BC073008BB01BB0766
:10384800A730B6009030B7003B083607B8003C08F0
:1038580003183C0A3707B9003808F0003908F100A6
:10386800352C080083120313B2003A2C8316031771
:103878008C183F2C402C3A2C412C8312031332080D
:10388800831203178D008312031330088312031762
:103898008C003F3083120313B100310883160317DD
:1038A8008C058312031303108B1F5B2C5C2C5D2C7F
:1038B80003148B13831603170C1555308D00AA308B
:1038C8008D008C140C1183120313031C6C2C6D2CAB
:1038D800702C8B17702C702C0800F50183120313C1
:1038E80008120816F50110307502031C7C2C7D2C7B
:1038F8007F2CAE2CAE2C7018822C862C83120313CE
:103908008715892C83120313871101300310F10CDA
:10391800F00CFF3E031D8A2C7218932C972C8312EF
:10392800031307149A2C8312031307100130031092
:10393800F30CF20CFF3E031D9B2C881288160130F5
:10394800F4007408F50710307502031CAC2CAD2C7C
:103958007F2CAE2C080083120313B5010812081639
:10396800B50110303502031CBA2CBB2CBD2CEC2C35
:10397800EC2C3018C02CC42C831203138715C72CC9
:1039880083120313871101300310B10CB00CFF3EF2
:10399800031DC82C3218D12CD52C831203130714FD
:1039A800D82C83120313071001300310B30CB20C88
:1039B800FF3E031DD92C881288160130B400340844
:1039C800B50710303502031CEA2CEB2CBD2CEC2C6F
:1039D80008008B1CF02CF12CFA2C8B12FD160A1601
:1039E8008A1560270A168A158B10462D0B1DFD2C8B
:1039F800FE2C072D8B120A168A1553250A168A15CE
:103A08000B118B16462D0C1C0A2D0B2D462D101054
:103A18008B120130AB002B08D4075408013A031D60
:103A2800162D172D3E2DD4010A168A15D3260A16EF
:103A38008A15013083120313AB002B08D5075308EE
:103A48005506031D282D292D3E2D0130AB002B08CE
:103A5800D207D5015A085202031C332D342D372DB5
:103A6800D201D301372D0A168A11E8230A168A15BE
:103A78003E2D3E2D831203130C1010148B16462D69
:103A8800462D462D831203132F08FF002E088A00A7
:103A98002D0884002C0E8300FE0E7E0E09001F30B8
:103AA800F6007608F80083120313081108150715A5
:103AB80007195F2D632D831203138714662D831254
:103AC80003138710881388147808F6007607903E49
:103AD800840083170008F000840A0008F1007808C1
:103AE800F7007707A03E840083130008F200840AD9
:103AF8000008F3000A168A1571240A168A1583121B
:103B08000313081308170130F8028A2D8811881545
:103B18000810081488107808FF3A031D942D952D75
:103B2800972DC52DC52D0430F700E430F600F60BAF
:103B38009B2DF70B9B2D64007808F6007607903EC6
:103B4800840083170008F000840A0008F100780850
:103B5800F7007707A03E840083130008F200840A68
:103B68000008F3000A168A1571240A168A1501300E
:103B7800F802831203130711871088140813081713
:103B88008A2D0430F700E430F600F60BC92DF70B48
:103B9800C92D640008001F3083120313B6003608CD
:103BA800B8000811081507150719DB2DDF2D83123A
:103BB80003138714E22D83120313871088138814C4
:103BC8003808B6003607903E840083170008B00016
:103BD800840A0008B1003808B7003707A03E8400FF
:103BE80083130008B200840A0008B3000A168A1575
:103BF800AF240A168A158312031308130817013015
:103C0800B802062E8811881508100814881038087C
:103C1800FF3A031D102E112E132E432E432E04306F
:103C2800B700E430B600B60B172EB70B172E64009A
:103C3800831203133808B6003607903E84008317B2
:103C48000008B000840A0008B1003808B700370738
:103C5800A03E840083130008B200840A0008B30061
:103C68000A168A15AF240A168A150130831203131F
:103C7800B80207118710881408130817062E043095
:103C8800B700E430B600B60B472EB70B472E6400DA
:103C9800080083120313C801C701C501C601C92E54
:103CA8003E08FF003D0884000A128A1100210A1606
:103CB8008A150A168A1503240A168A1571088312AA
:103CC8000313C401C4077008C301C307C801063041
:103CD8004802031C702E712E732EC22EC22E413044
:103CE8004702031C782E792E7B2ED22ED22E48081E
:103CF800053A031D802E812E842EC501C601972EFC
:103D080048084307840044080318440AFF000A12BD
:103D18008A1100210A168A15C100C2014108C5008E
:103D28004208C600972E4008013A031D9C2E9D2E7E
:103D3800A52E08300310C50DC60DFF3E031D9E2E8F
:103D4800A52E4608B101B1074508B001B0074708DC
:103D58000A168A15A0230A168A150130831203133E
:103D6800C1004108C8070130C1004108C707063033
:103D78004802031CC02EC12E732EC22E0130BD076F
:103D88000318BE0A0030BE07C92E0130BF023F0823
:103D9800FF3A031DD02ED12E542ED22E08008316A2
:103DA80003132108F501F5072008F401F407F601CB
:103DB8001F307602031CE12EE22EE42E1B2F1B2F50
:103DC8007608F0007007023E903E840083170008D2
:103DD800F100840A0008F2007608F3007307903EA9
:103DE800840071088000840A720880007608F00058
:103DF8007007023EA03E840083130008F100840A85
:103E08000008F2007608F3007307A03E84007108EA
:103E18008000840A720880000130F0007008F607FC
:103E28001F307602031C192F1A2FE42E1B2F75083A
:103E380083160317CF01CF077408CE01CE0783126C
:103E48000317110883160313DF01DF078312031713
:103E5800100883160313DE01DE07F601133076021D
:103E6800031C372F382F3A2F5B2F5B2F7608F00073
:103E78007007023E103E840083170008F100840A90
:103E88000008F2007608F3007307103E84007108FA
:103E98008000840A720880000130F0007008F6077C
:103EA80013307602031C592F5A2F3A2F5B2F831297
:103EB8000317B601B701080083120313061C652F08
:103EC800662F682FFF2FFF2F7D186B2F6C2F762FF3
:103ED80086186F2F702FFF2F7D14D801D601FF2F62
:103EE800FF2FA62F0830560203187B2F7C2F942F04
:103EF800861C7F2F802F8D2F0130F500560A862FC4
:103F08000310F50DFF3E031D842F7508F600760893
:103F1800D8040130F5007508D607FF2FFF2FA62F0C
:103F28005608083A031D992F9A2FA12F0130F50042
:103F38007508D607FF2FFF2FA62FD6017D10A62FB5
:103F4800A62FA62F5808F03A031DAB2FAC2FB02F81
:103F5800FD14D801FF2FFF2F5808123A0319B52F67
:103F6800B62FBC2F5808593A031DBB2FBC2FC72F9B
:103F7800FD18BF2FC02FC22FFD15FF2FFD11FD10FB
:103F8800FF2FFF2FFF2F5808583A031DCC2FCD2F96
:103F9800DD2FFD1CD02FD12FDB2F03107D1E031426
:103FA8000318D72FD92F7D16DA2F7D12DB2FFD109E
:103FB800FF2FFD18E02FE12FF02F5808E03A031DDE
:103FC800E62FE72FE92F7D15FF2F58080A168A11CB
:103FD80012230A168A15F92FFD1CF32FF42FF92F37
:103FE8007D10FD107D118B16F92F83120313D80154
:083FF800FF2FFF2FFF2F08002F
:00000001FF
